:020000040800F2
:10000000FF4F002069270008AD260008B926000828
:10001000BF260008C5260008CB2600080000000007
:10002000000000000000000000000000D1260008D1
:10003000DD26000800000000E9260008F52600087B
:10004000B1270008B1270008B1270008B127000830
:10005000B1270008B1270008B1270008B127000820
:10006000B1270008B1270008B1270008B127000810
:10007000B1270008B1270008B1270008B127000800
:10008000B1270008B1270008B1270008B1270008F0
:10009000B1270008B1270008B1270008B1270008E0
:1000A000B1270008B1270008B1270008B1270008D0
:1000B000B1270008B1270008B1270008B1270008C0
:1000C000B1270008B1270008B1270008B1270008B0
:1000D000B1270008B1270008B1270008B1270008A0
:1000E000B1270008B1270008B12700080000000070
:1000F0000000000000000000000000000000000000
:0C01000000000000000000005FF808F1A3
:10010C0010B5054C237833B9044B13B10448AFF345
:10011C0000800123237010BD0C00002000000000A3
:10012C000C28000808B5034B1BB103490348AFF377
:10013C00008008BD00000000100000200C28000802
:10014C0080F0004002E000BF81F0004142001FBF80
:10015C005FEA410392EA030F7FEA226C7FEA236C89
:10016C006AD04FEA1262D2EB1363C1BFD21841407E
:10017C0048404140B8BF5B42192B88BF704710F014
:10018C00004F40F4000020F07F4018BF404211F0B7
:10019C00004F41F4000121F07F4118BF494292EA1F
:1001AC00030F3FD0A2F1010241FA03FC10EB0C004B
:1001BC00C3F1200301FA03F100F0004302D54942D8
:1001CC0060EB4000B0F5000F13D3B0F1807F06D385
:1001DC0040084FEA310102F10102FE2A51D2B1F17D
:1001EC00004F40EBC25008BF20F0010040EA030072
:1001FC007047490040EB000010F4000FA2F101021F
:10020C00EDD1B0FA80FCACF1080CB2EB0C0200FAA8
:10021C000CF0AABF00EBC25052421843BCBFD040F6
:10022C001843704792F0000F81F4000106BF80F470
:10023C0000000132013BB5E74FEA41037FEA226C33
:10024C0018BF7FEA236C21D092EA030F04D092F0FE
:10025C00000F08BF0846704790EA010F1CBF002032
:10026C00704712F07F4F04D1400028BF40F000408F
:10027C00704712F100723CBF00F50000704700F0AF
:10028C00004343F0FE4040F4000070477FEA2262D6
:10029C0016BF08467FEA23630146420206BF5FEAA7
:1002AC00412390EA010F40F4800070474FF00003A7
:1002BC0004E000BF10F0004348BF40425FEA000C6E
:1002CC0008BF704743F0964301464FF000001CE016
:1002DC0050EA010208BF70474FF000030AE000BF6C
:1002EC0050EA010208BF704711F0004302D54042AA
:1002FC0061EB41015FEA010C02BF8446014600201C
:10030C0043F0B64308BFA3F18053A3F50003BCFA36
:10031C008CF2083AA3EBC25310DB01FA02FC6344E3
:10032C0000FA02FCC2F12002BCF1004F20FA02F2EA
:10033C0043EB020008BF20F00100704702F12002DD
:10034C0001FA02FCC2F1200250EA4C0021FA02F23E
:10035C0043EB020008BF20EADC7070474FF0FF0C43
:10036C001CEAD0521EBF1CEAD15392EA0C0F93EA3E
:10037C000C0F6FD01A4480EA010C400218BF5FEAE0
:10038C0041211ED04FF0006343EA501043EA511153
:10039C00A0FB01310CF00040B1F5000F3EBF49004D
:1003AC0041EAD3715B0040EA010062F17F02FD2A51
:1003BC001DD8B3F1004F40EBC25008BF20F0010034
:1003CC00704790F0000F0CF0004C08BF49024CEA4B
:1003DC00502040EA51207F3AC2BFD2F1FF0340EADD
:1003EC00C250704740F400004FF00003013A5DDC4E
:1003FC0012F1190FDCBF00F000407047C2F100028F
:10040C00410021FA02F1C2F1200200FA02FC5FEA7B
:10041C00310040F1000053EA4C0308BF20EADC70C5
:10042C00704792F0000F00F0004C02BF400010F437
:10043C00000F013AF9D040EA0C0093F0000F01F0E4
:10044C00004C02BF490011F4000F013BF9D041EA06
:10045C000C018FE70CEAD15392EA0C0F18BF93EA08
:10046C000C0F0AD030F0004C18BF31F0004CD8D132
:10047C0080EA010000F00040704790F0000F17BFB9
:10048C0090F0004F084691F0000F91F0004F14D0FF
:10049C0092EA0C0F01D142020FD193EA0C0F03D157
:1004AC004B0218BF084608D180EA010000F000405A
:1004BC0040F0FE4040F40000704740F0FE4040F435
:1004CC00400070474FF0FF0C1CEAD0521EBF1CEAD4
:1004DC00D15392EA0C0F93EA0C0F69D0A2EB0302F2
:1004EC0080EA010C49024FEA402037D04FF080538C
:1004FC0043EA111143EA10130CF000408B4238BF51
:10050C005B0042F17D024FF4000C8B4224BF5B1A5E
:10051C0040EA0C00B3EB510F24BFA3EB510340EAAC
:10052C005C00B3EB910F24BFA3EB910340EA9C005A
:10053C00B3EBD10F24BFA3EBD10340EADC001B01CA
:10054C0018BF5FEA1C1CE0D1FD2A3FF650AF8B426E
:10055C0040EBC25008BF20F0010070470CF0004C7B
:10056C004CEA50207F32C2BFD2F1FF0340EAC250A6
:10057C00704740F400004FF00003013A37E792F067
:10058C00000F00F0004C02BF400010F4000F013AC5
:10059C00F9D040EA0C0093F0000F01F0004C02BFC0
:1005AC00490011F4000F013BF9D041EA0C0195E729
:1005BC000CEAD15392EA0C0F08D142027FF47DAFC2
:1005CC0093EA0C0F7FF470AF084676E793EA0C0FB2
:1005DC0004D14B023FF44CAF08466EE730F0004CB0
:1005EC0018BF31F0004CCAD130F000427FF45CAF40
:1005FC0031F000437FF43CAF5FE700BF42000ED206
:10060C00B2F1FE4F0BD34FF09E03B3EB126209D441
:10061C004FEA002343F0004323FA02F070474FF0F7
:10062C000000704712F1610F01D1420202D14FF06C
:10063C00FF3070474FF00000704700BF80B500AF2F
:10064C00084B1B68074A43F010031360032000F0AB
:10065C0007F9002000F008F801F0B2FF002318465B
:10066C0080BD00BF0020024080B582B000AF786032
:10067C00124B1A68124B1B7819464FF47A73B3FB62
:10068C00F1F3B2FBF3F3184600F011F90346002B1B
:10069C0001D001230EE07B680F2B0AD80022796869
:1006AC004FF0FF3000F0E7F8064A7B681360002338
:1006BC0000E0012318460837BD4680BD0800002025
:1006CC00040000200000002080B400AF054B1B7814
:1006DC001A46054B1B681344034A136000BFBD4602
:1006EC0080BC7047040000203000002080B400AFB4
:1006FC00024B1B681846BD4680BC7047300000207A
:10070C0080B485B000AF78607B6803F00703FB60B2
:10071C000C4BDB68BB60BA684FF6FF031340BB6041
:10072C00FB681A02BB68134343F0BF6343F4003306
:10073C00BB60044ABB68D36000BF1437BD4680BCA5
:10074C00704700BF00ED00E080B400AF044BDB68E5
:10075C001B0A03F007031846BD4680BC704700BF58
:10076C0000ED00E080B483B000AF03463960FB714C
:10077C0097F90730002B0BDA3B68DAB20C49FB799E
:10078C0003F00F03043B1201D2B20B441A7609E0BA
:10079C003B68DAB2074997F907301201D2B20B4421
:1007AC0083F8002300BF0C37BD4680BC704700BFE8
:1007BC0000ED00E000E100E080B489B000AFF8602B
:1007CC00B9607A60FB6803F00703FB61FB69C3F156
:1007DC000703042B28BF0423BB61FB690433062BDE
:1007EC0002D9FB69033B00E000237B614FF0FF3231
:1007FC00BB6902FA03F3DA43BB681A407B699A407F
:10080C004FF0FF317B6901FA03F3D9437B680B404E
:10081C00134318462437BD4680BC704780B582B060
:10082C0000AF78607B68013BB3F1807F01D301237B
:10083C000FE00A4A7B68013B53600F214FF0FF30F9
:10084C00FFF790FF054B00229A60044B07221A60B9
:10085C00002318460837BD4680BD00BF10E000E0FD
:10086C0080B582B000AF78607868FFF749FF00BFB1
:10087C000837BD4680BD80B586B000AF0346B96071
:10088C007A60FB7300237B61FFF75EFF78617A6807
:10089C00B9687869FFF790FF024697F90F30114657
:1008AC001846FFF75FFF00BF1837BD4680BD80B507
:1008BC0082B000AF78607868FFF7B0FF0346184647
:1008CC000837BD4680BD000080B48BB000AF7860A7
:1008DC0039600023FB610023BB6100237B61002393
:1008EC003B6200233B6100237B6227E101227B6A90
:1008FC0002FA03F3FB613B681B68FA691340BB61A6
:10090C00BA69FB699A4240F016813B685B68122B0E
:10091C0034D0122B0DD8022B2BD0022B04D8002B49
:10092C0031D0012B1CD048E0032B43D0112B1BD012
:10093C0043E0874A934226D0854A934206D8854A9B
:10094C00934220D0844A93421DD036E0834A93428E
:10095C0019D0834A934216D0824A934213D02CE08A
:10096C003B68DB683B6228E03B68DB6804333B6236
:10097C0023E03B68DB6808333B621EE03B68DB68C6
:10098C000C333B6219E03B689B68002B02D10423BB
:10099C003B6212E03B689B68012B05D108233B624C
:1009AC007B68FA691A6108E008233B627B68FA6984
:1009BC005A6102E000233B6200BFBB69FF2B01D8E8
:1009CC007B6801E07B680433FB60BB69FF2B02D8BA
:1009DC007B6A9B0002E07B6A083B9B003B61FB68E7
:1009EC001A680F213B6901FA03F3DB431A40396A99
:1009FC003B6901FA03F31A43FB681A603B685B68B6
:100A0C0003F08053002B00F09680574B9B69564A9D
:100A1C0043F001039361544B9B6903F00103BB60EA
:100A2C00BB68524A7B6A9B08023352F823307B61C5
:100A3C007B6A03F003039B000F2202FA03F3DB43F0
:100A4C007A6913407B617B68494A934213D07B6877
:100A5C00484A93420DD07B68474A934207D07B6843
:100A6C00464A934201D1032306E0042304E0022307
:100A7C0002E0012300E000237A6A02F003029200F4
:100A8C0093407A6913437B6138497B6A9B08023334
:100A9C007A6941F823203B685B6803F48033002BB0
:100AAC0006D0374B1A683649BB6913430B6006E016
:100ABC00334B1A68BB69DB43314913400B603B680D
:100ACC005B6803F40033002B06D02D4B5A682C497D
:100ADC00BB6913434B6006E0294B5A68BB69DB4387
:100AEC00274913404B603B685B6803F48013002B71
:100AFC0006D0234B9A682249BB6913438B6006E0EE
:100B0C001F4B9A68BB69DB431D4913408B603B68E4
:100B1C005B6803F40013002B06D0194BDA681849F4
:100B2C00BB691343CB6006E0154BDA68BB69DB434A
:100B3C0013491340CB607B6A01337B627B6A0F2BBA
:100B4C007FF6D4AE00BF2C37BD4680BC704700BFCB
:100B5C0000002110000011100000121000003110D4
:100B6C000000321000002210001002400000014072
:100B7C0000080140000C014000100140001401402D
:100B8C000004014080B483B000AF78600B467B80DA
:100B9C0013467B707B78002B03D07A887B681A61B4
:100BAC0003E07B881A047B681A6100BF0C37BD46D2
:100BBC0080BC704780B584B000AF78600023FB60C8
:100BCC000023BB607B68002B01D10123E7E07B682D
:100BDC0093F83D30DBB2002B06D17B68002283F802
:100BEC003C20786801F01EFD7B68242283F83D20B0
:100BFC007B681B681A687B681B6822F001021A600C
:100C0C0001F024FBB8607B685B68674A934207D8A5
:100C1C00BB68664A934294BF01230023DBB206E013
:100C2C00BB68634A934294BF01230023DBB2002BC1
:100C3C0001D00123B3E0BB685E4AA2FB03239B0CEB
:100C4C00FB607B681B68FA685A607B685B68564A75
:100C5C00934202D8FB68013309E0FB684FF49672AB
:100C6C0002FB03F3544AA2FB03239B0901337A686A
:100C7C00126813627B685B684B4A93420DD8BB6861
:100C8C005A1E7B685B685B00B2FBF3F30133C3F362
:100C9C000B03042B38BF04234FE07B689B68002BAD
:100CAC0011D1BB68591E7B685A6813465B0013440C
:100CBC00B1FBF3F30133C3F30B03002B0CBF012384
:100CCC000023DBB212E0BB68591E7B685A681346DE
:100CDC009B0013449A001344B1FBF3F30133C3F3A9
:100CEC000B03002B0CBF01230023DBB2002B01D024
:100CFC00012322E07B689B68002B0ED1BB68591E38
:100D0C007B685A6813465B001344B1FBF3F3013361
:100D1C00C3F30B0343F400430FE0BB68591E7B681D
:100D2C005A6813469B0013449A001344B1FBF3F327
:100D3C000133C3F30B0343F440437A681268D36165
:100D4C007B68D9697B681A6A7B681B680A431A60DE
:100D5C007B6819697B68DA687B681B680A439A6050
:100D6C007B6859697B689A697B681B680A43DA60FF
:100D7C007B681B681A687B681B6842F001021A606A
:100D8C007B6800221A647B68202283F83D207B68F4
:100D9C0000221A637B68002283F83E200023184649
:100DAC001037BD4680BD00BFA08601007F841E00A9
:100DBC00FF083D0083DE1B43D34D621080B588B025
:100DCC0002AFF860084611461A4603467B810B4673
:100DDC003B811346FB8000237B61FFF787FC786126
:100DEC00FB6893F83D30DBB2202B40F0E7807B6949
:100DFC000093192301227449F86800F0A1FC034602
:100E0C00002B01D00223DAE0FB6893F83C30012B75
:100E1C0001D10223D3E0FB68012283F83C20FB685C
:100E2C001B681B6803F00103012B07D0FB681B68D0
:100E3C001A68FB681B6842F001021A60FB681B68A9
:100E4C001A68FB681B6822F400621A60FB68212296
:100E5C0083F83D20FB68402283F83E20FB6800228B
:100E6C001A64FB683A6A5A62FB68BA8C5A85FB684A
:100E7C00564ADA62FB685B8D9AB2FB681A85F88871
:100E8C003A8979897B690193BB6A00930346F868B8
:100E9C0000F0E0FA0346002B5ED0FB681B6C042BC1
:100EAC0005D1FB68002283F83C20012387E0FB6816
:100EBC00002283F83C20032381E07A69B96AF86840
:100ECC0000F0FDFC0346002B0FD0FB681B6C042BC1
:100EDC0009D1FB681B681A68FB681B6842F4007236
:100EEC001A6001236BE0032369E0FB685B6A591C01
:100EFC00FA6851621A78FB681B681A61FB681B8DD3
:100F0C00013B9AB2FB681A85FB685B8D9BB2013B77
:100F1C009AB2FB685A85FB681B685B6903F0040393
:100F2C00042B19D1FB681B8D002B15D0FB685B6A59
:100F3C00591CFA6851621A78FB681B681A61FB68C5
:100F4C001B8D013B9AB2FB681A85FB685B8D9BB2CB
:100F5C00013B9AB2FB685A85FB681B8D002BACD108
:100F6C007A69B96AF86800F0E7FC0346002B0FD0E9
:100F7C00FB681B6C042B09D1FB681B681A68FB68A7
:100F8C001B6842F400721A60012318E0032316E078
:100F9C00FB681B681A68FB681B6842F400721A60D5
:100FAC00FB68202283F83D20FB68002283F83E205A
:100FBC00FB68002283F83C20002300E00223184643
:100FCC001837BD4680BD00BF020010000000FFFFB7
:100FDC0080B58CB002AFF860084611461A4603463D
:100FEC007B810B463B811346FB8000237B62FFF722
:100FFC007DFB7862FB6893F83D30DBB2202B40F030
:10100C0022827B6A0093192301228A49F86800F036
:10101C0097FB0346002B01D0022315E2FB6893F8E3
:10102C003C30012B01D102230EE2FB68012283F834
:10103C003C20FB681B681B6803F00103012B07D0E5
:10104C00FB681B681A68FB681B6842F001021A6097
:10105C00FB681B681A68FB681B6822F400621A6044
:10106C00FB68222283F83D20FB68402283F83E2057
:10107C00FB6800221A64FB683A6B5A62FB68BA8EF2
:10108C005A85FB686C4ADA62FB685B8D9AB2FB6826
:10109C001A85F8883A8979897B6A0193BB6B00932E
:1010AC000346F86800F06AFA0346002B0FD0FB6881
:1010BC001B6C042B05D1FB68002283F83C20012318
:1010CC00C2E1FB68002283F83C200323BCE1FB68EF
:1010DC001B8D002B13D100233B62FB681B685B69E3
:1010EC003B62FB681B689B693B623B6AFB681B6845
:1010FC001A68FB681B6842F400721A6090E1FB6886
:10110C001B8D012B1DD1FB681B681A68FB681B68C3
:10111C0022F480621A6072B60023FB61FB681B68C4
:10112C005B69FB61FB681B689B69FB61FB69FB6886
:10113C001B681A68FB681B6842F400721A6062B67E
:10114C006EE1FB681B8D022B1DD1FB681B681A68B6
:10115C00FB681B6842F400621A6072B60023BB6124
:10116C00FB681B685B69BB61FB681B689B69BB61A7
:10117C00BB69FB681B681A68FB681B6822F48062F9
:10118C001A6062B64CE1FB681B681A68FB681B6846
:10119C0042F480621A6000237B61FB681B685B6908
:1011AC007B61FB681B689B697B617B6938E1FB6831
:1011BC001B8D032B00F2EF80FB681B8D012B27D1BD
:1011CC007A6AB96BF86800F0F4FB0346002B07D081
:1011DC00FB681B6C202B01D1032335E1012333E188
:1011EC00FB681B681869FB685B6A591CFA685162DA
:1011FC00C2B21A70FB681B8D013B9AB2FB681A8550
:10120C00FB685B8D9BB2013B9AB2FB685A8507E188
:10121C00FB681B8D022B4CD17B6A0093BB6B0022AD
:10122C000649F86800F08CFA0346002B08D003231B
:10123C000AE100BF020010000000FFFF04000100E3
:10124C0072B6FB681B681A68FB681B6842F4007274
:10125C001A60FB681B681869FB685B6A591CFA68A2
:10126C005162C2B21A70FB681B8D013B9AB2FB68CB
:10127C001A85FB685B8D9BB2013B9AB2FB685A8561
:10128C0062B6FB681B681869FB685B6A591CFA68D4
:10129C005162C2B21A70FB681B8D013B9AB2FB689B
:1012AC001A85FB685B8D9BB2013B9AB2FB685A8531
:1012BC00B6E07B6A0093BB6B00226549F86800F0CE
:1012CC003FFA0346002B01D00323BDE0FB681B68EB
:1012DC001A68FB681B6822F480621A6072B6FB689D
:1012EC001B681869FB685B6A591CFA685162C2B2C8
:1012FC001A70FB681B8D013B9AB2FB681A85FB6860
:10130C005B8D9BB2013B9AB2FB685A857B6A00935A
:10131C00BB6B00224E49F86800F012FA0346002B12
:10132C0001D0032390E0FB681B681A68FB681B68FC
:10133C0042F400721A60FB681B681869FB685B6AF0
:10134C00591CFA685162C2B21A70FB681B8D013BC2
:10135C009AB2FB681A85FB685B8D9BB2013B9AB213
:10136C00FB685A8562B6FB681B681869FB685B6A88
:10137C00591CFA685162C2B21A70FB681B8D013B92
:10138C009AB2FB681A85FB685B8D9BB2013B9AB2E3
:10139C00FB685A8544E07A6AB96BF86800F009FB7F
:1013AC000346002B07D0FB681B6C202B01D10323B9
:1013BC004AE0012348E0FB681B681869FB685B6A1C
:1013CC00591CFA685162C2B21A70FB681B8D013B42
:1013DC009AB2FB681A85FB685B8D9BB2013B9AB293
:1013EC00FB685A85FB681B685B6903F00403042BDC
:1013FC0016D1FB681B681869FB685B6A591CFA6894
:10140C005162C2B21A70FB681B8D013B9AB2FB6829
:10141C001A85FB685B8D9BB2013B9AB2FB685A85BF
:10142C00FB681B8D002B7FF4C2AEFB68202283F877
:10143C003D20FB68002283F83E20FB68002283F8E5
:10144C003C20002300E0022318462837BD4680BD0F
:10145C000400010080B588B002AFF8600846114660
:10146C001A4603467B810B463B811346FB80FB6887
:10147C001B681A68FB681B6842F480721A607B6AEE
:10148C0000933B6A00224FF00111F86800F058F904
:10149C000346002B01D0032369E07B89DBB21A469B
:1014AC00FB681B6802F0FE021A617B6A3A6A3249D9
:1014BC00F86800F096F90346002B07D0FB681B6C0C
:1014CC00042B01D1012352E0032350E000237B6164
:1014DC00FB681B685B697B61FB681B689B697B61B4
:1014EC007B697A6A396AF86800F0E9F90346002BDF
:1014FC000FD0FB681B6C042B09D1FB681B681A68A6
:10150C00FB681B6842F400721A6001232FE003236E
:10151C002DE0FB88012B05D13B89DAB2FB681B68F7
:10152C001A6123E03B891B0A9BB2DAB2FB681B6889
:10153C001A617A6A396AF86800F0C1F90346002B1F
:10154C000FD0FB681B6C042B09D1FB681B681A6855
:10155C00FB681B6842F400721A60012307E0032346
:10156C0005E03B89DAB2FB681B681A610023184658
:10157C001837BD4680BD00BF0200010080B588B0A1
:10158C0002AFF860084611461A4603467B810B46AB
:10159C003B811346FB80FB681B681A68FB681B6861
:1015AC0042F480621A60FB681B681A68FB681B684F
:1015BC0042F480721A607B6A00933B6A00224FF0FF
:1015CC000111F86800F0BCF80346002B01D003238E
:1015DC00B0E07B89DBB21A46FB681B6802F0FE02A6
:1015EC001A617B6A3A6A5549F86800F0FAF80346C2
:1015FC00002B07D0FB681B6C042B01D1012399E055
:10160C00032397E000237B61FB681B685B697B61AC
:10161C00FB681B689B697B617B697A6A396AF8682D
:10162C0000F04DF90346002B0FD0FB681B6C042B0C
:10163C0009D1FB681B681A68FB681B6842F40072CE
:10164C001A60012376E0032374E0FB88012B05D19B
:10165C003B89DAB2FB681B681A6123E03B891B0AE1
:10166C009BB2DAB2FB681B681A617A6A396AF8684D
:10167C0000F025F90346002B0FD0FB681B6C042BE4
:10168C0009D1FB681B681A68FB681B6842F400727E
:10169C001A6001234EE003234CE03B89DAB2FB686D
:1016AC001B681A617A6A396AF86800F008F903460F
:1016BC00002B0FD0FB681B6C042B09D1FB681B683B
:1016CC001A68FB681B6842F400721A60012331E04F
:1016DC0003232FE0FB681B681A68FB681B6842F445
:1016EC0080721A607B6A00933B6A00224FF00111F2
:1016FC00F86800F025F80346002B01D0032319E00D
:10170C007B89DBB243F00103DAB2FB681B681A6118
:10171C007B6A3A6A0949F86800F063F80346002BC3
:10172C0007D0FB681B6C042B01D1012302E00323BF
:10173C0000E0002318461837BD4680BD02000100AA
:10174C0080B584B000AFF860B9603B601346FB71A4
:10175C001FE03B68B3F1FF3F1BD03B68002B07D069
:10176C00FEF7C4FF0246BB69D31A3A689A4210D2FC
:10177C00FB6800221A63FB68202283F83D20FB687B
:10178C00002283F83E20FB68002283F83C200323D0
:10179C0023E0BB681B0CDBB2012B0DD1FB681B6873
:1017AC005B69DA43BB6813409BB2002B0CBF01236F
:1017BC000023DBB21A460CE0FB681B689B69DA431A
:1017CC00BB6813409BB2002B0CBF01230023DBB280
:1017DC001A46FB799A42BCD0002318461037BD46F6
:1017EC0080BD80B584B000AFF860B9607A603B60B2
:1017FC0040E0FB681B685B6903F48063B3F5806FA2
:10180C001CD1FB681B681A68FB681B6842F40072E9
:10181C001A60FB681B686FF480625A61FB680422D3
:10182C001A64FB6800221A63FB68202283F83D20AF
:10183C00FB68002283F83C2001233CE07B68B3F179
:10184C00FF3F17D07B68002B07D0FEF74FFF0246F7
:10185C003B68D31A7A689A420CD2FB6800221A634E
:10186C00FB68202283F83D20FB68002283F83C2093
:10187C00032320E0BB681B0CDBB2012B0CD1FB68F3
:10188C001B685B69DA43BB6813409BB2002B14BF27
:10189C0001230023DBB20BE0FB681B689B69DA4376
:1018AC00BB6813409BB2002B14BF01230023DBB297
:1018BC00002B9ED1002318461037BD4680BD80B545
:1018CC0084B000AFF860B9607A6029E0F86800F085
:1018DC00BAF80346002B01D0012329E0BB68B3F111
:1018EC00FF3F1DD0BB68002B07D0FEF7FFFE024662
:1018FC007B68D31ABA689A4212D2FB681B6C43F00D
:10190C002002FB681A64FB6800221A63FB68202221
:10191C0083F83D20FB68002283F83C20032307E07A
:10192C00FB681B685B6903F08003802BCED100231E
:10193C0018461037BD4680BD80B584B000AFF86046
:10194C00B9607A6029E0F86800F07DF80346002B56
:10195C0001D0012329E0BB68B3F1FF3F1DD0BB6868
:10196C00002B07D0FEF7C2FE02467B68D31ABA687A
:10197C009A4212D2FB681B6C43F02002FB681A647B
:10198C00FB6800221A63FB68202283F83D20FB6869
:10199C00002283F83C20032307E0FB681B685B698B
:1019AC0003F00403042BCED1002318461037BD4698
:1019BC0080BD80B584B000AFF860B9607A6036E065
:1019CC00FB681B685B6903F01003102B14D1FB68D8
:1019DC001B686FF010025A61FB6800221A64FB68E6
:1019EC0000221A63FB68202283F83D20FB6800224A
:1019FC0083F83C20012322E0BB68002B07D0FEF7C4
:101A0C0075FE02467B68D31ABA689A420FD2FB68FD
:101A1C001B6C43F02002FB681A64FB68202283F8DD
:101A2C003D20FB68002283F83C20032307E0FB6881
:101A3C001B685B6903F04003402BC1D1002318469F
:101A4C001037BD4680BD80B483B000AF78607B6832
:101A5C001B685B6903F48063B3F5806F14D17B68FA
:101A6C001B686FF480625A617B6804221A647B687D
:101A7C0000221A637B68202283F83D207B680022B9
:101A8C0083F83C20012300E0002318460C37BD46A8
:101A9C0080BC704780B586B000AF786000233B6196
:101AAC007B681B6803F00103002B00F08780924BCE
:101ABC005B6803F00C03042B0CD08F4B5B6803F0BA
:101ACC000C03082B12D18C4B5B6803F48033B3F5F9
:101ADC00803F0BD1884B1B6803F40033002B6CD078
:101AEC007B685B68002B68D101232DE27B685B6807
:101AFC00B3F5803F06D1804B1B687F4A43F480339B
:101B0C0013602EE07B685B68002B0CD17A4B1B6852
:101B1C00794A23F480331360774B1B68764A23F49D
:101B2C00802313601DE07B685B68B3F5A02F0CD19C
:101B3C00714B1B68704A43F4802313606E4B1B6817
:101B4C006D4A43F4803313600BE06B4B1B686A4A9D
:101B5C0023F480331360684B1B68674A23F480239B
:101B6C0013607B685B68002B13D0FEF7BFFD3861F8
:101B7C0008E0FEF7BBFD02463B69D31A642B01D982
:101B8C000323E1E15C4B1B6803F40033002BF0D022
:101B9C0014E0FEF7ABFD386108E0FEF7A7FD024646
:101BAC003B69D31A642B01D90323CDE1524B1B683B
:101BBC0003F40033002BF0D100E000BF7B681B68FE
:101BCC0003F00203002B63D04B4B5B6803F00C0358
:101BDC00002B0BD0484B5B6803F00C03082B1CD17B
:101BEC00454B5B6803F48033002B16D1424B1B68CA
:101BFC0003F00203002B05D07B681B69012B01D07D
:101C0C000123A1E13C4B1B6823F0F8027B685B6964
:101C1C00DB00394913430B603AE07B681B69002BEE
:101C2C0020D0364B01221A60FEF760FD386108E0C7
:101C3C00FEF75CFD02463B69D31A022B01D9032344
:101C4C0082E12D4B1B6803F00203002BF0D02A4BD2
:101C5C001B6823F0F8027B685B69DB0026491343A1
:101C6C000B6015E0254B00221A60FEF73FFD386132
:101C7C0008E0FEF73BFD02463B69D31A022B01D963
:101C8C00032361E11C4B1B6803F00203002BF0D112
:101C9C007B681B6803F00803002B39D07B689B69B9
:101CAC00002B19D0164B01221A60FEF71FFD38616C
:101CBC0008E0FEF71BFD02463B69D31A022B01D943
:101CCC00032341E10C4B5B6A03F00203002BF0D0C1
:101CDC00012000F0CFFA1BE0094B00221A60FEF73E
:101CEC0005FD38610EE0FEF701FD02463B69D31A93
:101CFC00022B07D9032327E10010024000004242C7
:101D0C0080044242924B5B6A03F00203002BEAD13F
:101D1C007B681B6803F00403002B00F0A6800023F3
:101D2C00FB758B4BDB6903F08053002B0DD1884B7B
:101D3C00DB69874A43F08053D361854BDB6903F041
:101D4C008053FB60FB680123FB75824B1B6803F41B
:101D5C008073002B18D17F4B1B687E4A43F4807331
:101D6C001360FEF7C3FC386108E0FEF7BFFC0246C7
:101D7C003B69D31A642B01D90323E5E0754B1B682F
:101D8C0003F48073002BF0D07B68DB68012B06D149
:101D9C006F4B1B6A6E4A43F0010313622DE07B68A4
:101DAC00DB68002B0CD16A4B1B6A694A23F00103D8
:101DBC001362674B1B6A664A23F0040313621CE030
:101DCC007B68DB68052B0CD1614B1B6A604A43F0C6
:101DDC00040313625E4B1B6A5D4A43F001031362FA
:101DEC000BE05B4B1B6A5A4A23F001031362584BFE
:101DFC001B6A574A23F0040313627B68DB68002BD1
:101E0C0015D0FEF773FC38610AE0FEF76FFC024652
:101E1C003B69D31A41F28832934201D9032393E0F0
:101E2C004B4B1B6A03F00203002BEED014E0FEF7C1
:101E3C005DFC38610AE0FEF759FC02463B69D31A97
:101E4C0041F28832934201D903237DE0404B1B6A57
:101E5C0003F00203002BEED1FB7D012B05D13C4B93
:101E6C00DB693B4A23F08053D3617B68DB69002B31
:101E7C0069D0374B5B6803F00C03082B61D07B688F
:101E8C00DB69022B46D1344B00221A60FEF72EFC84
:101E9C00386108E0FEF72AFC02463B69D31A022B94
:101EAC0001D9032350E02A4B1B6803F00073002B6D
:101EBC00F0D17B681B6AB3F5803F08D1244B5B687B
:101ECC0023F400327B689B68214913434B60204B01
:101EDC005B6823F474127B68196A7B685B6A0B433A
:101EEC001B4913434B601C4B01221A60FEF7FEFB8F
:101EFC00386108E0FEF7FAFB02463B69D31A022B65
:101F0C0001D9032320E0124B1B6803F00073002B54
:101F1C00F0D018E0104B00221A60FEF7E7FB386196
:101F2C0008E0FEF7E3FB02463B69D31A022B01D90A
:101F3C00032309E0064B1B6803F00073002BF0D160
:101F4C0001E0012300E0002318461837BD4680BD90
:101F5C0000100240007000406000424280B584B026
:101F6C0000AF786039600023FB607E4B1B6803F088
:101F7C0007033A689A4210D97A4B1B6823F0070280
:101F8C0078493B6813430B60764B1B6803F00703DF
:101F9C003A689A4201D00123E0E07B681B6803F0A9
:101FAC000203002B20D07B681B6803F00403002B7A
:101FBC0005D06D4B5B686C4A43F4E06353607B68FF
:101FCC001B6803F00803002B05D0674B5B68664A5F
:101FDC0043F460535360644B5B6823F0F0027B68FE
:101FEC009B68614913434B607B681B6803F00103DA
:101FFC00002B6AD07B685B68012B07D15A4B1B689E
:10200C0003F40033002B15D10123A7E07B685B6838
:10201C00022B07D1544B1B6803F00073002B09D122
:10202C0001239BE0504B1B6803F00203002B01D1F2
:10203C00012393E04C4B5B6823F003027B685B68E5
:10204C00494913434B60FEF751FBF8607B685B68B2
:10205C00012B12D10AE0FEF749FB0246FB68D31AAA
:10206C0041F28832934201D9032377E03E4B5B68FF
:10207C0003F00C03042BEED127E07B685B68022B8A
:10208C001DD10AE0FEF732FB0246FB68D31A41F27F
:10209C008832934201D9032360E0334B5B6803F031
:1020AC000C03082BEED110E0FEF720FB0246FB6878
:1020BC00D31A41F28832934201D903234EE02A4BC2
:1020CC005B6803F00C03002BEED1264B1B6803F06E
:1020DC0007033A689A4210D2224B1B6823F007027E
:1020EC0020493B6813430B601E4B1B6803F007032E
:1020FC003A689A4201D0012330E07B681B6803F0F8
:10210C000403002B08D0184B5B6823F4E0627B6857
:10211C00DB68154913434B607B681B6803F00803AD
:10212C00002B09D0104B5B6823F460527B681B6951
:10213C00DB000D4913434B6000F01CF801460A4BC1
:10214C005B681B0903F00F03084AD35C21FA03F305
:10215C00074A13600020FEF787FA00231846103751
:10216C00BD4680BD00200240001002403828000807
:10217C000800002090B48AB000AF2A4B3C1D0FCB56
:10218C0084E80F00284B1B883B800023FB61002355
:10219C00BB6100237B6200237B6100233B62234BEA
:1021AC005B68FB61FB6903F00C03042B02D0082B6A
:1021BC0003D02DE01E4B3B622DE0FB699B0C03F022
:1021CC000F0307F12802134413F8243C7B61FB69CD
:1021DC0003F48033002B13D0144B5B685B0C03F0BF
:1021EC00010307F12802134413F8283CBB617B69F7
:1021FC000F4A02FB03F2BB69B2FBF3F37B6204E010
:10220C007B690C4A02FB03F37B627B6A3B6202E054
:10221C00074B3B6200BF3B6A18462837BD4690BC53
:10222C00704700BF24280008342800080010024022
:10223C0000127A0000093D0080B400AF024B1B680D
:10224C001846BD4680BC70470800002080B500AF22
:10225C00FFF7F2FF0146054B5B681B0A03F007030F
:10226C00034AD35C21FA03F3184680BD00100240E8
:10227C004828000880B485B000AF78600A4B1B6812
:10228C000A4AA2FB03235B0A7A6802FB03F3FB6096
:10229C0000BFFB685A1EFA60002BF9D100BF14373F
:1022AC00BD4680BC704700BF08000020D34D6210B3
:1022BC0080B586B004AF7023FB71A023BB710023E3
:1022CC007B714E4B00221A804D4B00221A804D4BD5
:1022DC0000221A80FEF7B2F900F0A0F800F012F913
:1022EC0000F0E2F86423029301230193FB1D009399
:1022FC00012300223C214448FEF760FD6423029335
:10230C0001230193BB1D0093012301223C213E4874
:10231C00FEF754FD64230293012301937B1D00936C
:10232C00012302223C213848FEF748FD6423029326
:10233C0002230193354B0093012383223D21324824
:10234C00FEF746FE314B5B781B02304A1278134382
:10235C001846FDF7AFFF03462D491846FEF7B2F8B5
:10236C0003461846FEF74AF903469AB2234B1A80E5
:10237C006423029302230193264B009301238722AB
:10238C003D212148FEF724FE224B5B781B02214A9B
:10239C00127813431846FDF78DFF03461C49184667
:1023AC00FEF790F803461846FEF728F903469AB252
:1023BC00134B1A806423029302230193164B009350
:1023CC00012385223D211048FEF702FE124B5B785B
:1023DC001B02114A127813431846FDF76BFF034694
:1023EC000B491846FEF76EF803461846FEF706F939
:1023FC0003469AB2034B1A8098E700BF28000020CE
:10240C002A0000202C000020380000209000002022
:10241C000000C343340000208C00002080B590B035
:10242C0000AF07F1180328220021184600F0E0F94C
:10243C003B1D00221A605A609A60DA601A6101230F
:10244C00BB614FF48033FB6100233B620123BB6211
:10245C0002237B634FF48033BB634FF4E013FB63C5
:10246C0007F118031846FFF715FB0346002B01D0A4
:10247C0000F0A0F80F237B600223BB600023FB60FD
:10248C004FF480633B6100237B613B1D02211846A6
:10249C00FFF764FD0346002B01D000F08BF800BF62
:1024AC004037BD4680BD000080B500AF124B134ACB
:1024BC001A60114B124A5A600F4B00229A600E4B55
:1024CC000022DA600C4B4FF480421A610A4B002256
:1024DC005A61094B00229A61074B0022DA61064BC4
:1024EC0000221A620448FEF765FB0346002B01D05C
:1024FC0000F060F800BF80BD3800002000540040A0
:10250C00A086010080B588B000AF07F1100300224F
:10251C001A605A609A60DA60244B9B69234A43F034
:10252C0010039361214B9B6903F01003FB60FB6864
:10253C001E4B9B691D4A43F0200393611B4B9B6907
:10254C0003F02003BB60BB68184B9B69174A43F030
:10255C0004039361154B9B6903F004037B607B6858
:10256C00124B9B69114A43F0080393610F4B9B6913
:10257C0003F008033B603B6800224FF400510C4809
:10258C00FEF700FB4FF400533B6101237B610023FA
:10259C00BB610223FB6107F1100319460448FEF7E7
:1025AC0093F900BF2037BD4680BD00BF001002402C
:1025BC000010014080B400AF00BFBD4680BC704726
:1025CC0080B485B000AF154B9B69144A43F00103EE
:1025DC009361124B9B6903F00103BB60BB680F4B0B
:1025EC00DB690E4A43F08053D3610C4BDB6903F07B
:1025FC0080537B607B680A4B5B68FB60FB6823F055
:10260C00E063FB60FB6843F00073FB60044AFB680B
:10261C00536000BF1437BD4680BC704700100240A9
:10262C000000014080B588B000AF786007F110035E
:10263C0000221A605A609A60DA607B681B68154A3F
:10264C00934223D1144B9B69134A43F008039361C3
:10265C00114B9B6903F00803FB60FB68C0233B61D3
:10266C0012237B610323FB6107F1100319460B480E
:10267C00FEF72AF9084BDB69074A43F40013D361D0
:10268C00054BDB6903F40013BB60BB6800BF20374C
:10269C00BD4680BD0054004000100240000C0140BB
:1026AC0080B400AF00BFBD4680BC704780B400AFA3
:1026BC00FEE780B400AFFEE780B400AFFEE780B465
:1026CC0000AFFEE780B400AF00BFBD4680BC7047D2
:1026DC0080B400AF00BFBD4680BC704780B400AF73
:1026EC0000BFBD4680BC704780B500AFFDF7ECFF66
:1026FC0000BF80BD80B400AF154B1B68144A43F07B
:10270C0001031360124B5A681149124B13404B6072
:10271C000F4B1B680E4A23F0847323F48033136031
:10272C000B4B1B680A4A23F480231360084B5B682D
:10273C00074A23F4FE035360054B4FF41F029A60C3
:10274C00054B4FF000629A6000BFBD4680BC7047DD
:10275C00001002400000FFF800ED00E0002103E053
:10276C000B4B5B58435004310A480B4B42189A42AE
:10277C00F6D30A4A02E0002342F8043B084B9A4283
:10278C00F9D3FFF7B7FF00F00FF8FFF791FD704793
:10279C0058280008000000200C0000200C0000202D
:1027AC009C000020FEE7000070B500250C4E0D4C7F
:1027BC00A41BA410A54209D100F022F800250A4E52
:1027CC000A4CA41BA410A54205D170BD56F82530A7
:1027DC0098470135EEE756F8253098470135F2E772
:1027EC0050280008502800085028000854280008D9
:1027FC0003460244934200D1704703F8011BF9E7EA
:10280C00F8B500BFF8BC08BC9E467047F8B500BFD1
:08281C00F8BC08BC9E467047A1
:1028240002030405060708090A0B0C0D0E0F10100D
:102834000102000000000000000000000102030487
:0C28440006070809000000000102030460
:04285000310100084A
:042854000D0100086A
:0C285800100000000100000000A24A0473
:04000005080027695F
:00000001FF
